:100000000C9462000C948A000C948A000C948A0070
:100010000C948A000C948A000C948A000C948A0038
:100020000C948A000C948A000C948A000C948A0028
:100030000C948A000C948A000C948A000C948A0018
:100040000C94AC080C948A000C947A080C94540814
:100050000C948A000C948A000C948A000C948A00F8
:100060000C948A000C948A000000000024002700F1
:100070002A0000000000250028002B0000000008D6
:10008000000201000003040700000000000000005F
:1000900000000000230026002900040404040404D6
:1000A0000404020202020202030303030303010227
:1000B00004081020408001020408102001020408F6
:1000C0001020F60811241FBECFEFD8E0DEBFCDBF51
:1000D00024E0ACE7B2E001C01D92AF35B207E1F712
:1000E00012E0A0E0B1E0E4E7F1E202C005900D9279
:1000F000AC37B107D9F710E0C2E6D0E004C02197D1
:10010000FE010E94EE0DC136D107C9F70E944309D6
:100110000C94B8100C940000CF92DF92EF92FF92F3
:10012000CF93DF93B0914D04A0E08111AB2F80916C
:100130004E0490E0880F991FAC0140575F4FC0906C
:100140005304D0905404E0905504F090560430E0ED
:1001500020E0FA01C591D491E881B90190E080E0F6
:10016000EB23EA130AC02F5F3F4F6C157D058E0508
:100170009F0578F36FEF7FEFCB01DF91CF91FF9079
:10018000EF90DF90CF9008950895AF92BF92CF92F5
:10019000DF92EF92FF920F931F93CF93DF936C0147
:1001A0007B018B01040F151FEB015E01AE18BF0828
:1001B000C017D10759F06991D601ED91FC910190DA
:1001C000F081E02DC6010995892B79F7C501DF91F2
:1001D000CF911F910F91FF90EF90DF90CF90BF9044
:1001E000AF900895FC01538D448D252F30E0842F6E
:1001F00090E0821B930B541710F0CF96089501974F
:100200000895FC01918D828D981761F0A28DAE0F3B
:10021000BF2FB11D5D968C91928D9F5F9F73928FC2
:1002200090E008958FEF9FEF0895FC01918D828DEE
:10023000981731F0828DE80FF11D858D90E00895BB
:100240008FEF9FEF0895FC01918D228D892F90E013
:10025000805C9F4F821B91098F739927089589EACB
:1002600093E00E94230121E0892B09F420E0822FF2
:10027000089580E090E0892B29F00E942F018111E0
:100280000C940000089589EA93E00C942301FC018A
:10029000A48DA80FB92FB11DA35ABF4F2C91848DE7
:1002A00090E001968F739927848FA689B7892C9344
:1002B000A089B1898C91837080648C93938D848D97
:1002C000981306C00288F389E02D80818F7D80839A
:1002D0000895EF92FF920F931F93CF93DF93EC015A
:1002E00081E0888F9B8D8C8D98131AC0E889F989DD
:1002F000808185FF15C09FB7F894EE89FF896083E0
:10030000E889F98980818370806480839FBF81E060
:1003100090E0DF91CF911F910F91FF90EF900895A2
:10032000F62E0B8D10E00F5F1F4F0F731127E02E7D
:100330008C8D8E110CC00FB607FCFACFE889F989B5
:10034000808185FFF5CFCE010E944701F1CFEB8D73
:10035000EC0FFD2FF11DE35AFF4FF0829FB7F89489
:100360000B8FEA89FB8980818062CFCFCF93DF93A7
:10037000EC01888D8823B9F0AA89BB89E889F989BD
:100380008C9185FD03C0808186FD0DC00FB607FCF2
:10039000F7CF8C9185FFF2CF808185FFEDCFCE0125
:1003A0000E944701E9CFDF91CF91089590E0FC01D1
:1003B000E458FF4F2491FC01E255FF4F3491FC01BA
:1003C000E656FF4FE491EE23C9F0222339F02330A3
:1003D00001F1A8F4213019F1223029F1F0E0EE0FFB
:1003E000FF1FEE58FF4FA591B4918FB7F894EC9191
:1003F000611126C030953E233C938FBF089527306E
:10040000A9F02830C9F0243049F7809180008F7D11
:1004100003C0809180008F7780938000DFCF84B508
:100420008F7784BDDBCF84B58F7DFBCF8091B0000B
:100430008F778093B000D2CF8091B0008F7DF9CFBD
:100440003E2BDACF60E00C94D60161E00C94D6012B
:10045000CF93DF9390E0FC01E255FF4F2491865645
:100460009F4FFC0184918823D1F090E0880F991F61
:10047000FC01E859FF4FA591B491FC01EE58FF4FE4
:10048000C591D491623071F49FB7F8943C91822F5A
:10049000809583238C93E8812E2B28839FBFDF9147
:1004A000CF9108958FB7F894EC912E2B2C938FBF9A
:1004B000F6CF61E00C9428023FB7F8948091DB02FC
:1004C0009091DC02A091DD02B091DE0226B5A89BDE
:1004D00005C02F3F19F00196A11DB11D3FBFBA2FD6
:1004E000A92F982F8827BC01CD01620F711D811D96
:1004F000911D42E0660F771F881F991F4A95D1F71B
:1005000008958F929F92AF92BF92CF92DF92EF9217
:10051000FF926B017C010E945C024B015C01C114E3
:10052000D104E104F104B9F00E945C026819790970
:100530008A099B09683E73408105910580F321E09B
:10054000C21AD108E108F10888EE880E83E0981EEF
:10055000A11CB11CE4CFFF90EF90DF90CF90BF9033
:10056000AF909F908F900895CF92DF92EF92FF927D
:100570000F931F93CF93DF93CDB7DEB7C054D14015
:100580000FB6F894DEBF0FBECDBF2FB7F8948091A1
:10059000A5039091A603A091A703B091A8032FBF34
:1005A00040914F0450915004609151047091520455
:1005B0008C019D01041B150B260B370BB901A801FB
:1005C000403D57406105710590F480915704C05C2F
:1005D000DE4F0FB6F894DEBF0FBECDBFDF91CF91D7
:1005E0001F910F91FF90EF90DF90CF90089580932F
:1005F0004F0490935004A0935104B093520410926E
:100600004A04109249041092480410924704109230
:10061000460462E080914B040E94280261E070E091
:1006200080E090E00E94810261E080914B040E9492
:10063000280260E080914B040E94D60180914C0416
:100640008551823020F58BE291E10197F1F762E06C
:1006500080914B040E9428028091580490E08230DF
:10066000910538F0880F991F880F991F05970197FA
:10067000F1F7F89480E00E948C006F3F7F4F8F4F1E
:100680009F4F61F410925704789480E0A0CF64E10A
:1006900070E080E090E00E948102D9CF81E00E946A
:1006A0008C006F3F7F4F8F4F9F4F61F38E010F5F25
:1006B0001F4F6E018FEBC81A8EEFD80A780180E0C9
:1006C0000E948C00F701608371838283938381E0B1
:1006D0000E948C00F7016483758386839783F8E01A
:1006E000EF0EF11CEC14FD0451F7789430E020E09B
:1006F000F801C080D180E280F38044815581668119
:100700007781FFEFCF16DF06EF06FF0631F04F3F90
:100710008FEF58076807780719F410925704B5CF80
:10072000F90183E0F595E7958A95E1F7EA5BFB4FE0
:100730008081880FC416D506E606F70610F180837F
:100740002F5F3F4F085F1F4F2832310589F64091D8
:100750004A042091460480914704280F3327331F11
:1007600080914804280F311D80914904820F932FF6
:10077000911D99274817190681F681E08093570447
:1007800026CF8160DCCF0C948102682F89EA93E048
:100790000C946901EF92FF920F931F93CF93DF9315
:1007A0007B018C01D0E0C0E0CE15DF0508F03DC034
:1007B0002FB7F8948091A5039091A603A091A70369
:1007C000B091A8032FBF8093B1039093B203A0937D
:1007D000B303B093B40389EA93E00E94010197FF49
:1007E0002CC02FB7F8948091A5039091A603A091F7
:1007F000A703B091A8032FBF4091B1035091B2035A
:100800006091B3037091B403841B950BA60BB70BD7
:100810004091AD035091AE036091AF037091B0036E
:1008200084179507A607B707B0F2CE01DF91CF91E5
:100830001F910F91FF90EF900895F80181938F0120
:100840002196B2CFCF92DF92EF92FF926C01990F77
:10085000EE08FF0860E079E08DE390E0A7019601E3
:100860000E94B80D2150310941095109569547950B
:1008700037952795E091B903F091BA0382E0808320
:10088000211580E13807A8F0E091B903F091BA038F
:10089000108260E874E88EE190E0A70196010E9462
:1008A000B80D2150310941095109569547953795A1
:1008B0002795E091B503F091B6033083E091B7033B
:1008C000F091B80320831092C103E091BD03F09131
:1008D000BE0386E08083E091BB03F091BC0380817E
:1008E00080618083E091BB03F091BC0380818860CC
:1008F0008083E091BB03F091BC038081806880839A
:10090000E091BB03F091BC0380818F7D808380E206
:100910009EE4A0E0B0E08093AD039093AE03A0937B
:10092000AF03B093B003FF90EF90DF90CF900895A6
:100930000895E091E902F091EA020994E091DF0262
:10094000F091E00209940F931F93CF93DF93EC0192
:10095000843691052CF164E670E00E94A40D83E2D8
:100960006A30710524F467577E4FFB0180810E9435
:100970009E04CE0164E670E00E94A40DEC01CA3032
:10098000D10594F0CE016AE070E00E94A40D8C01C4
:1009900067577E4FFB0180810E949E04E80107C0DB
:1009A00080E30E949E04EBCF80E30E949E0483E2DA
:1009B000CA30D10518F4C757DE4F8881DF91CF9137
:1009C0001F910F910C949E04CF92DF92EF92FF92B1
:1009D0000F931F93CF93DF938C0197FF04C0882759
:1009E0009927801B910B7C01C1E0D0E04AE08C1775
:1009F0009D07D4F48AE0C82ED12CCA30D105DCF092
:100A0000CE01B6010E94A40DEB01C7010E94A40D06
:100A10007C0183E26A30710524F467577E4FFB0145
:100A200080810E949E04E9CF9E01429FE001439F86
:100A3000D00D1124DCCF8DE217FF8BE2DF91CF9137
:100A40001F910F91FF90EF90DF90CF900C949E0438
:100A50009F92AF92BF92CF92DF92EF92FF920F934D
:100A60001F93CF93DF9383E50E949E0480916701DB
:100A7000909168019C012F5F3F4F283E43E034076F
:100A800009F446C030936801209367010E94A304D3
:100A900023E9A22E21E0B22E3FEAE32E31E0F32E2D
:100AA0002091010130910201C7018F5A91408217B4
:100AB00093070CF046C089EBC82E81E0D82E96E74C
:100AC000992EE601C95BD140D7018C910E949E040A
:100AD000892D0E949E04D501ED91FC91C230D10573
:100AE00051F1D8F4209709F1219711F1C8010E9422
:100AF000E404BFEFCB1ADB0AF6019080FFE29F12FD
:100B0000E0CF4FEFE41AF40A82E0A80EB11CC8CF80
:100B10001092680110926701B9CFC330D10571F00E
:100B2000249721F700851185E1CF00811181DECF67
:100B300002811381DBCF04811581D8CF0681178113
:100B4000D5CFDF91CF911F910F91FF90EF90DF9064
:100B5000CF90BF90AF909F900895E091E302F09105
:100B6000E4020994E091E702F091E802099480E040
:100B70000895EF92FF920F931F93CF93DF93CDB71A
:100B8000DEB7EDB6FEB62DB73EB7281B390B0FB654
:100B9000F8943EBF0FBE2DBF0DB71EB70F5F1F4F9E
:100BA000E091E102F091E202BC01C8010995F8016F
:100BB000A3E0B1E09D0123503140281739071CF410
:100BC00021912D93F7CF0FB6F894FEBE0FBEEDBE68
:100BD000DF91CF911F910F91FF90EF900895CF93E8
:100BE0008091D8029091D9022091D6023091D702FB
:100BF0008217930744F58D5F9E4FFC01C081CA3573
:100C0000E9F460916D0170916E01072E000C880B64
:100C1000990B0E94B205E091E502F091E60282E0B4
:100C200090E009958091D8029091D9020196909315
:100C3000D9028093D8028C2FCF910895CE3491F7AA
:100C40008EE40E949E0481ED91E00E9499040E942E
:100C5000AD05009759F46091710170917201072EF2
:100C6000000C880B990B0E94B205F1CF85369105D7
:100C700014F084E690E00E94B9059093D702809327
:100C8000D6021092D9021092D802AACF0F931F93C6
:100C9000CF93DF93CDB7DEB760970FB6F894DEBF82
:100CA0000FBECDBF242F042E000C330B3F934F9368
:100CB000262F062E000C330B3F936F939F938F9339
:100CC0001F9280E18F938E010F5F1F4F1F930F9331
:100CD0000E940A0EC8010E9499040FB6F894DEBF64
:100CE0000FBECDBF60960FB6F894DEBF0FBECDBF6E
:100CF000DF91CF911F910F910895DF92EF92FF92B4
:100D00000F931F93CF93DF93CDB7DEB760970FB6E6
:100D1000F894DEBF0FBECDBF8DED91E00E94990427
:100D20006091690170916A01072E000C880B990B84
:100D30000E94B2050E94EF050BEE11E08B3489F0A2
:100D4000282F082E000C330B3F938F931F930F9384
:100D50000E94F40D0E94EF050F900F900F900F90DE
:100D6000EDCF0E94AD05892B29F081E090E00E9433
:100D7000B905F7CF1092D7021092D60282EF91E018
:100D80000E9499048BE40E949E040E94EF05833424
:100D900021F08CEF91E00E9499040E94EF0580936E
:100DA00000010E94EF05833421F08CEF91E00E9456
:100DB00099040E94EF0580538A3008F050C0E82F54
:100DC000F0E0EB55FE4F8081082E000C990B9093BC
:100DD0007401809373010E94EF05833421F08CEF3E
:100DE00091E00E9499040E94EF0580538A30D0F56B
:100DF000E82FF0E0EB55FE4F8081082E000C990B98
:100E000090930201809301010E94EF05833421F049
:100E10008CEF91E00E9499040E94EF050FEF1FEF05
:100E20003AE0F32E833421F180538A30F0F4E82F36
:100E3000F0E0EB55FE4F8081082E000C990B0F3F20
:100E4000100711F410E000E0F09E9001F19E300DCB
:100E500011248901080F191F0E94EF05E3CF8FEFBE
:100E60009FEFB5CF8FEF9FEFCBCF8FEF9FEFE7CF08
:100E70000E94EF05EE24EA94FE2C2AE0D22E833461
:100E8000F9F080538A30C8F4E82FF0E0EB55FE4FBC
:100E90008081082E000C990B2FEFE216F20611F458
:100EA000F12CE12CDE9C9001DF9C300D11247901A6
:100EB000E80EF91E0E94EF05E2CF8FEF9FEFECCF17
:100EC0001093720100937101F0927601E092750126
:100ED000FF92EF921F930F9380910001282F082E0D
:100EE000000C330B3F938F938EE092E09F938F9390
:100EF0001F9280E18F938E010F5F1F4F1F930F93FF
:100F00000E940A0EC8010E94990467EE73E080E017
:100F100090E00E94B2050FB6F894DEBF0FBECDBFC1
:100F200060960FB6F894DEBF0FBECDBFDF91CF91B4
:100F30001F910F91FF90EF90DF9008956F927F9235
:100F40008F929F92AF92BF92CF92DF92EF92FF92D9
:100F50000F931F93CF93DF935C010E94EF058235BF
:100F600031F0482F682F87E192E00E94460697E70C
:100F7000E92E91E0F92E2FEAC22E21E0D22E3AE09E
:100F8000632EC6018F5A91408A159B050CF07DC0D7
:100F9000D6017D906D0109EB11E086E7982EE801FE
:100FA000C95BD1400E94EF05893581F4DF91CF9173
:100FB0001F910F91FF90EF90DF90CF90BF90AF9077
:100FC0009F908F907F906F900C947D06781639F0EB
:100FD000472D682F81E392E00E944606E7CF0E94EA
:100FE000EF05893519F3891511F0492DF2CF912CB0
:100FF000812C0E94EF058935C9F28B3229F08D32A0
:10100000C9F4919481949108D701ED91FC91C2307B
:10101000D105A9F130F5209761F1219769F10F5FB2
:101020001F4FF8019080FFE29F12B9CF82E0E80ED7
:10103000F11CA7CF80538A3088F4E82FF0E0EB55FD
:10104000FE4F8081082E000C990B689C9001699CD2
:10105000300D11244901880E991ECBCF8FEF9FEFE1
:10106000F4CFC330D10571F02497C9F691868086FC
:10107000D6CF91828082D3CF93828282D0CF958245
:101080008482CDCF97828682CACFDF91CF911F9184
:101090000F91FF90EF90DF90CF90BF90AF909F9017
:1010A0008F907F906F9008951F920F920FB60F92BE
:1010B00011242F933F934F935F936F937F938F935D
:1010C0009F93AF93BF93EF93FF9389EA93E00E94BE
:1010D0004701FF91EF91BF91AF919F918F917F91C8
:1010E0006F915F914F913F912F910F900FBE0F9095
:1010F0001F9018951F920F920FB60F9211242F93E5
:101100008F939F93EF93FF93E091B903F091BA030C
:101110008081E091BF03F091C00382FD1BC09081EC
:101120008091C2038F5F8F732091C303821741F0B8
:10113000E091C203F0E0E755FC4F958F8093C20326
:10114000FF91EF919F918F912F910F900FBE0F9074
:101150001F9018958081F4CF1F920F920FB60F92B7
:1011600011242F933F938F939F93AF93BF938091BD
:10117000A5039091A603A091A703B091A803309175
:10118000DA0223E0230F2D3758F50196A11DB11D7A
:101190002093DA028093A5039093A603A093A7035C
:1011A000B093A8038091DB029091DC02A091DD0254
:1011B000B091DE020196A11DB11D8093DB029093D8
:1011C000DC02A093DD02B093DE02BF91AF919F914C
:1011D0008F913F912F910F900FBE0F901F901895F8
:1011E00026E8230F0296A11DB11DD2CFE9EAF3E054
:1011F0001382128288EE93E0A0E0B0E084839583AE
:10120000A683B78383EC91E09183808385EC90E0A3
:101210009587848784EC90E09787868780EC90E0C0
:10122000918B808B81EC90E0938B828B82EC90E0B1
:10123000958B848B86EC90E0978B868B118E128E2B
:10124000138E148EA6E4B4E084E015968C93159763
:101250008BE016968C931697E2EBF0E0E4911796EC
:10126000EC931797EEE9F0E0E4911896EC93189759
:1012700040E85EE360E070E01D964D935D936D93F2
:101280007C9350970895789484B5826084BD84B52A
:10129000816084BD85B5826085BD85B5816085BD71
:1012A00080916E00816080936E0010928100809129
:1012B00081008260809381008091810081608093B1
:1012C0008100809180008160809380008091B100D6
:1012D00084608093B1008091B00081608093B00001
:1012E00080917A00846080937A0080917A00826095
:1012F00080937A0080917A00816080937A00809157
:101300007A00806880937A001092C10061E08DE0DD
:101310000E94280262E080914B040E9428022FB7AD
:10132000F8948091A5039091A603A091A703B09192
:10133000A8032FBF805D9740A109B10980934F0496
:1013400090935004A0935104B093520487E3809388
:10135000580484EC90E09093EA028093E90283ECD5
:1013600093E09093E8028093E70282E292E0909308
:10137000E6028093E50285E292E09093EE0280938C
:10138000ED0289E592E09093F0028093EF0282E211
:1013900094E09093EC028093EB0283E491E09093CD
:1013A000E4028093E3028AEC93E09093E20280935C
:1013B000E10285EC93E09093E0028093DF0287EEF8
:1013C00093E090936E0180936D0183E690E090939B
:1013D0006C0180936B0180ED97E090936A0180939C
:1013E000690181E492E00E949904109268011092D0
:1013F00067011092700110926F01E091EF02F0917D
:10140000F00282E090E00995E091ED02F091EE02A9
:1014100082E090E00995E091EB02F091EC0280E827
:1014200095E2099580E592E00E9499040E94AD053D
:10143000181619062CF481E090E00E94B905F6CF49
:101440008AE40E949E0460916B0170916C01072EEA
:10145000000C880B990B0E94B2050E94AD0518166E
:10146000190624F481E090E00E94B90580910301FF
:101470008A3431F78FE592E00E9499040E947D063C
:101480000E94280580917301909174010E949E072B
:101490008DE692E00E94990400E010E00E94280589
:1014A000DD24D394F12CE12C0E94AD055C01892B45
:1014B00009F087C0DD2009F478C080917501909112
:1014C00076018E159F0509F065C00E94B705D82EDC
:1014D00080E50E949E0480916F01909170019C01B3
:1014E0002F5F3F4F283E43E0340771F13093700186
:1014F00020936F010E94A30499EB892E91E0992E0D
:1015000026E7C22EC401895B91407C0181E60E94DE
:101510009E048C2D0E949E0492E0E916F10481F154
:10152000C0F4E114F10411F1EA94EF2821F1CE01A5
:101530000E94E4049FEF891A990AF401C080FFE237
:10154000CF12E0CF7501B0CF1092700110926F01F1
:10155000D1CF43E0E416F104C1F084E0E816F104D1
:1015600031F7C0918402D0918502E1CFC0917C0215
:10157000D0917D02DCCFC0917E02D0917F02D7CF87
:10158000C0918002D0918102D2CFC0918202D091CD
:101590008302CDCF57014FEFA41AB40A61E070E087
:1015A00080E090E00E94B205CDCF60917101709112
:1015B0007201072E000C880B990B0E94B20557018F
:1015C000C1CF80917301909174010E949E07E090B9
:1015D000F102F090F2020E94B402882349F0809157
:1015E0004C048B3028F08D3040F085518230F0F182
:1015F00060E070E080EC9FE71CC06091470470E001
:1016000090E080E00E94D10B2DEC3CEC4CEC5DE3D3
:101610000E940C0C4B015C016091460470E090E06C
:1016200080E00E94D10B9B01AC01C501B4010E9476
:10163000020D20E030E040E251E40E940C0C0E94D8
:101640006E0D70935603609355030E94B402882375
:1016500041F080914C048C3009F481C0C8F48B3087
:1016600081F160E070E080EC9FE753C06091460438
:101670007091470476276727762790E080E00E94E4
:10168000CF0B2DEC3CEC4CEC5DE30E940C0CD1CF6D
:101690008551823030F7D09048046D2D70E0762F60
:1016A000662766277F7780914904682B90E080E069
:1016B0000E94CF0B2DEC3CEC4CEC5DE30E940C0C3B
:1016C0006AC06091480470E090E080E00E94CF0B17
:1016D0004B015C01D0904904D7FE0AC0AC019B01CC
:1016E00060E070E080E89FEB0E94010D4B015C011F
:1016F0006D2D6F7070E090E080E00E94D10B2DECBA
:101700003CEC4CEC5DE30E940C0CA50194010E94A2
:10171000020D20E030E040E251E40E940C0C0E94F7
:101720006E0D709358036093570361E0EA94EF28BD
:1017300009F060E08DE00E94D60163E670E080E091
:1017400090E00E9481020115110509F4A7CE0E94C4
:101750002F01882309F4A2CE0E9400009FCED090D2
:1017600048046D2D70E090E080E00E94CF0B4B01AB
:101770005C01609149046F7070E090E080E00E942D
:10178000D10B2DEC3CEC4CEC5DE30E940C0CA50164
:1017900094010E94020DD7FEBCCF9058BACFE894B6
:1017A00009C097FB3EF490958095709561957F4FA9
:1017B0008F4F9F4F9923A9F0F92F96E9BB27939557
:1017C000F695879577956795B795F111F8CFFAF467
:1017D000BB0F11F460FF1BC06F5F7F4F8F4F9F4F98
:1017E00016C0882311F096E911C0772321F09EE8F6
:1017F000872F762F05C0662371F096E8862F70E05C
:1018000060E02AF09A95660F771F881FDAF7880F35
:101810009695879597F908950E941F0C0C94900C4B
:101820000E94820C38F00E94890C20F0952311F060
:101830000C94790C0C947F0C11240C94C40C0E9411
:10184000A10C70F3959FC1F3950F50E0551F629F57
:10185000F001729FBB27F00DB11D639FAA27F00D09
:10186000B11DAA1F649F6627B00DA11D661F829F30
:101870002227B00DA11D621F739FB00DA11D621F15
:10188000839FA00D611D221F749F3327A00D611D32
:10189000231F849F600D211D822F762F6A2F112414
:1018A0009F5750409AF0F1F088234AF0EE0FFF1F47
:1018B000BB1F661F771F881F91505040A9F79E3F9E
:1018C000510580F00C94790C0C94C40C5F3FE4F348
:1018D000983ED4F3869577956795B795F795E795F4
:1018E0009F5FC1F7FE2B880F911D9695879597F9FD
:1018F000089597F99F6780E870E060E008959FEF92
:1019000080EC089500240A94161617061806090696
:10191000089500240A941216130614060506089565
:10192000092E0394000C11F4882352F0BB0F40F4ED
:10193000BF2B11F460FF04C06F5F7F4F8F4F9F4F2D
:10194000089557FD9058440F551F59F05F3F71F0AF
:101950004795880F97FB991F61F09F3F79F0879516
:101960000895121613061406551FF2CF4695F1DF9F
:1019700008C0161617061806991FF1CF869571052F
:10198000610508940895E894BB2766277727CB0163
:1019900097F908952F923F924F925F926F927F92A4
:1019A0008F929F92AF92BF92CF92DF92EF92FF926F
:1019B0000F931F93CF93DF93CDB7DEB7CA1BDB0B1B
:1019C0000FB6F894DEBF0FBECDBF09942A883988C0
:1019D00048885F846E847D848C849B84AA84B984C7
:1019E000C884DF80EE80FD800C811B81AA81B981D3
:1019F000CE0FD11D0FB6F894DEBF0FBECDBFED01E7
:101A000008955058BB27AA270E94190D0C94900CDA
:101A10000E94820C38F00E94890C20F039F49F3F1C
:101A200019F426F40C947F0C0EF4E095E7FB0C946B
:101A3000790CE92F0E94A10C58F3BA1762077307BB
:101A40008407950720F079F4A6F50C94C30C0EF4E6
:101A5000E0950B2EBA2FA02D0B01B90190010C01BE
:101A6000CA01A0011124FF27591B99F0593F50F4D6
:101A7000503E68F11A16F040A22F232F342F44272E
:101A8000585FF3CF469537952795A795F040539526
:101A9000C9F77EF41F16BA0B620B730B840BBAF0F6
:101AA0009150A1F0FF0FBB1F661F771F881FC2F761
:101AB0000EC0BA0F621F731F841F48F48795779575
:101AC0006795B795F7959E3F08F0B0CF9395880F2F
:101AD00008F09927EE0F9795879508950E94750D48
:101AE0006894B1110C94C40C08950E94A90C88F05C
:101AF0009F5798F0B92F9927B751B0F0E1F0660FD2
:101B0000771F881F991F1AF0BA95C9F714C0B13012
:101B100091F00E94C30CB1E008950C94C30C672FA0
:101B2000782F8827B85F39F0B93FCCF38695779541
:101B30006795B395D9F73EF490958095709561952A
:101B40007F4F8F4F9F4F089597FB072E16F40094F9
:101B500007D077FD09D00E94DA0D07FC05D03EF4CE
:101B6000909581959F4F0895709561957F4F089549
:101B7000A1E21A2EAA1BBB1BFD010DC0AA1FBB1F91
:101B8000EE1FFF1FA217B307E407F50720F0A21B03
:101B9000B30BE40BF50B661F771F881F991F1A9470
:101BA00069F760957095809590959B01AC01BD019A
:101BB000CF010895AA1BBB1B51E107C0AA1FBB1F81
:101BC000A617B70710F0A61BB70B881F991F5A95C9
:101BD000A9F780959095BC01CD010895EE0FFF1FE8
:101BE0000590F491E02D0994B0E0A0E0EAEFFDE06B
:101BF0000C94DA0CAE014B5F5F4FFA016191719169
:101C0000AF0180915B0490915C040E943A0EE2E087
:101C10000C94F60CAEE0B0E0E0E1FEE00C94D80CE1
:101C20000D891E898F89988D26E02C831A8309835C
:101C300097FF02C080E090E801979E838D83AE01FC
:101C4000455E5F4F698D7A8DCE0101960E943A0EF6
:101C50004D815E8157FD0AC02F8138854217530799
:101C60000CF49A01020F131FF80110822E96E4E083
:101C70000C94F40CABE0B0E0E0E4FEE00C94CA0C91
:101C80007C013B018A01FC0117821682838181FF5E
:101C9000C8C1CE0101965C01F7019381F30193FD68
:101CA000859193FF81913F01882309F453C18532C7
:101CB00039F493FD859193FF81913F01853229F499
:101CC000B70190E00E942A10E7CF912C212C312CF3
:101CD000FFE1F31538F08B3211F190F4803209F105
:101CE000833229F137FC3CC020ED280F2A3050F513
:101CF00036FE20C08AE0989E200D1124922E06C048
:101D00008D3291F0803371F7689430F8F30193FDD0
:101D1000859193FF81913F018111DACF21C06894B1
:101D200031F8689432F8F2CF689433F8EFCF6894C2
:101D300034F8ECCFEAE02E9E200D1124222E689478
:101D400035F8E4CF8E3229F436FC04C1689436F8B5
:101D5000DDCF8C3619F4689437F8D8CF8836B1F2D5
:101D6000982F9F7D95549330E0F08336A1F183370F
:101D7000C1F1833509F063C02801F2E04F0E511C18
:101D8000F801C080D180692D70E036FC02C06FEF91
:101D90007FEFC6010E9414104C01689437F882014D
:101DA0000AC00C5F1F4FFFE3F98388248394912CB2
:101DB0006501E89437F833FE2DC0522C811491044C
:101DC00071F5552009F468CFB70180E290E00E94D8
:101DD0002A105A94F6CFF801808189830E5F1F4F35
:101DE000E4CF2801F2E04F0E511CF801C080D180F1
:101DF000692D70E036FC02C06FEF7FEFC6010E94D4
:101E00001F104C018201D5CFB70180E290E00E9403
:101E10002A102A942814190409F0B0F7CECFF6013D
:101E200037FC859137FE81916F01B70190E00E94E8
:101E30002A1051105A94F1E08F1A9108BFCF8436BE
:101E400019F0893609F077C0F80137FE6BC0608160
:101E50007181828193810C5F1F4FF32DFF763F2E9E
:101E600097FF09C090958095709561957F4F8F4F32
:101E70009F4F689437F82AE030E0A5010E945A107D
:101E8000C82ECA188C2C432C36FE0CC0E89440F89F
:101E9000C91440F434FE05C032FC03C0F32DFE7EAD
:101EA0004F2E892C44FE95C0FE01EC0DF11D808162
:101EB000803309F087C0242D297E422E842D88701E
:101EC000582E43FC95C040FE8FC09C2C821418F401
:101ED0002C0C922C981844FE91C0B70180E390E03E
:101EE0000E942A1042FE09C088E790E041FE02C02D
:101EF00088E590E0B7010E942A10C91408F48AC04E
:101F0000CA94D12C9FEFC91AD90ACA0CDB1CF6015E
:101F100082916F01B70190E00E942A10AC14BD04B9
:101F2000B1F74FCF60817181072E000C880B990BA0
:101F30000E5F1F4F92CFD32CE894D4F82AE030E004
:101F4000853739F1232D297FD22E8F3601F148F4C0
:101F50008835A9F0F701868197812B96E2E10C94F0
:101F6000E60C803749F08837A9F7D4FE02C06894A0
:101F7000D2F820E130E00DC06894D4F8F6CF34FEFA
:101F800003C0822F8660D82E20E132E002C028E014
:101F900030E0F801D7FE0FC06081718182819381AA
:101FA0000C5F1F4FA5010E945A10C82ECA183D2C65
:101FB000E89437F867CF6081718190E080E00E5F30
:101FC0001F4FF0CF42FC02C0839478CF8394839458
:101FD00075CF842D867809F471CFF6CFB70180E2F2
:101FE00090E00E942A1083948214C0F3512C73CF86
:101FF000522C5818821408F46ECFF8CF842D8678AE
:1020000009F47BCF8BE241FE80E247FC8DE2B70111
:1020100090E071CFB70180E390E00E942A109A947B
:102020006CCF8FEF9FEF99CFFC010590615070400E
:102030000110D8F7809590958E0F9F1F0895FC0191
:102040006150704001900110D8F7809590958E0FE7
:102050009F1F08950F931F93CF93DF93182F092F7E
:10206000EB018B8181FD09C01FEF0FEF812F902FB6
:10207000DF91CF911F910F91089582FF14C02E819F
:102080003F818C819D81281739073CF4E881F981D3
:10209000CF0101969983888310838E819F81019659
:1020A0009F838E83E3CFE885F985812F0995892B5E
:1020B000A1F3DACFFA01AA27283051F1203181F1BA
:1020C000E8946F936E7F6E5F7F4F8F4F9F4FAF4F40
:1020D000B1E03ED0B4E03CD0670F781F891F9A1F53
:1020E000A11D680F791F8A1F911DA11D6A0F711D07
:1020F000811D911DA11D20D009F468943F912AE013
:10210000269F11243019305D3193DEF6CF010895FA
:10211000462F4770405D4193B3E00FD0C9F7F6CF2B
:10212000462F4F70405D4A3318F0495D31FD4052F3
:10213000419302D0A9F7EACFB4E0A6959795879589
:1021400077956795BA95C9F7009761057105089568
:102150009B01AC010A2E0694579547953795279514
:10216000BA95C9F7620F731F841F951FA01D0895AC
:04217000F894FFCF11
:1021740041FFFF2D2D2D2D232D2D2D2D232D2D2DE7
:102184002D232D2D2D2D232D2D2D2D232D2D2D2D99
:10219400232D2D2D2D232D2D2D2D233D2D2D2D3D69
:1021A4002D2D2D2D3D2D2D2D2D232D2D2D2D232D5F
:1021B4002D2D2D232D2D2D2D232D2D2D2D232D2D69
:1021C4002D2D232D2D2D2D232D2D2D2D233D2D2D49
:1021D4002D3D2D2D2D2D3DFFFFFFFFFFFFFFFFFFA9
:1021E400FF6300FFFFFFFFF102FB0205030F03196A
:1021F4000323032D0337034103303132333435369F
:102204003738394B0355035F03690373037D038731
:102214000391039B030001020304050607080961F7
:1022240062636465666768692F767778797A2F00C8
:102234000000006901C500F200B601230101011587
:1022440001617661696C61626C652829002323232E
:102254002052657365742023232300524420256390
:102264000A002320476F74204B2023002320507240
:102274006F6772616D206572726F7220230025632F
:1022840020256420256400457870656374656420A6
:10229400522062757420676F742025632025630AB9
:1022A400003D3D2045525220256320213D202563D9
:1022B400002320636F72655F73657475702D2D0044
:1022C40023232320496E6974204A202323230023D7
:1022D400232320476F74204A202323230023202D07
:0C22E4002D636F72655F73657475700088
:00000001FF
