:100000000C9462000C948A000C948A000C948A0070
:100010000C948A000C948A000C948A000C948A0038
:100020000C948A000C948A000C948A000C948A0028
:100030000C948A000C948A000C948A000C948A0018
:100040000C942E070C948A000C949E070C9478074D
:100050000C948A000C948A000C948A000C948A00F8
:100060000C948A000C948A000000000024002700F1
:100070002A0000000000250028002B0000000008D6
:10008000000201000003040700000000000000005F
:1000900000000000230026002900040404040404D6
:1000A0000404020202020202030303030303010227
:1000B00004081020408001020408102001020408F6
:1000C0001020D00711241FBECFEFD8E0DEBFCDBF78
:1000D00025E0AAE8B2E001C01D92A133B207E1F722
:1000E00012E0A0E0B1E0EAECF1E202C005900D926E
:1000F000AA38B107D9F710E0C2E6D0E004C02197D2
:10010000FE010E94190EC136D107C9F70E941D08D1
:100110000C94E3100C940000CF92DF92EF92FF92C8
:10012000CF93DF93B0911F05A0E08111AB2F809199
:10013000200590E0880F991FAC0140575F4FC09099
:100140002505D0902605E0902705F090280530E0A1
:1001500020E0FA01C591D491E881B90190E080E0F6
:10016000EB23EA130AC02F5F3F4F6C157D058E0508
:100170009F0578F36FEF7FEFCB01DF91CF91FF9079
:10018000EF90DF90CF90089590E0FC01E458FF4F8E
:100190002491FC01E255FF4F3491FC01E656FF4FDC
:1001A000E491EE23C9F0222339F0233001F1A8F4C1
:1001B000213019F1223029F1F0E0EE0FFF1FEE5847
:1001C000FF4FA591B4918FB7F894EC91611126C0BF
:1001D00030953E233C938FBF08952730A9F02830F7
:1001E000C9F0243049F7809180008F7D03C0809151
:1001F00080008F7780938000DFCF84B58F7784BDB8
:10020000DBCF84B58F7DFBCF8091B0008F7780935B
:10021000B000D2CF8091B0008F7DF9CF3E2BDACFE6
:10022000CF93DF9390E0FC01E255FF4F2491865677
:100230009F4FFC0184918823D1F090E0880F991F93
:10024000FC01E859FF4FA591B491FC01EE58FF4F16
:10025000C591D491623071F49FB7F8943C91822F8C
:10026000809583238C93E8812E2B28839FBFDF9179
:10027000CF9108958FB7F894EC912E2B2C938FBFCC
:10028000F6CF3FB7F8948091730490917404A091D5
:100290007504B091760426B5A89B05C02F3F19F0D0
:1002A0000196A11DB11D3FBFBA2FA92F982F8827F6
:1002B000BC01CD01620F711D811D911D42E0660FD1
:1002C000771F881F991F4A95D1F708958F929F92A3
:1002D000AF92BF92CF92DF92EF92FF926B017C01BF
:1002E0000E9441014B015C01C114D104E104F104FD
:1002F000B9F00E944101681979098A099B09683E91
:1003000073408105910580F321E0C21AD108E1080C
:10031000F10888EE880E83E0981EA11CB11CE4CF82
:10032000FF90EF90DF90CF90BF90AF909F908F9015
:100330000895CF92DF92EF92FF920F931F93CF9386
:10034000DF93CDB7DEB7C054D1400FB6F894DEBF0F
:100350000FBECDBF2FB7F8948091770490917804A9
:10036000A0917904B0917A042FBF4091210550915A
:10037000220560912305709124058C019D01041BC9
:10038000150B260B370BB901A801403D57406105FD
:10039000710590F480912905C05CDE4F0FB6F8948A
:1003A000DEBF0FBECDBFDF91CF911F910F91FF90A8
:1003B000EF90DF90CF9008958093210590932205D0
:1003C000A0932305B093240510921C0510921B05E1
:1003D00010921A05109219051092180562E080918A
:1003E0001D050E94100161E070E080E090E00E9435
:1003F000660161E080911D050E94100160E080911E
:100400001D050E94C40080911E058551823020F593
:100410008BE291E10197F1F762E080911D050E9466
:10042000100180912A0590E08230910538F0880F04
:10043000991F880F991F05970197F1F7F89480E0AD
:100440000E948C006F3F7F4F8F4F9F4F61F410923F
:100450002905789480E0A0CF64E170E080E090E02E
:100460000E946601D9CF81E00E948C006F3F7F4FD0
:100470008F4F9F4F61F38E010F5F1F4F6E018FEB08
:10048000C81A8EEFD80A780180E00E948C00F7012C
:10049000608371838283938381E00E948C00F701E3
:1004A0006483758386839783F8E0EF0EF11CEC1468
:1004B000FD0451F7789430E020E0F801C080D1804D
:1004C000E280F3804481558166817781FFEFCF160A
:1004D000DF06EF06FF0631F04F3F8FEF5807680742
:1004E000780719F410922905B5CFF90183E0F59545
:1004F000E7958A95E1F7E85EFA4F8081880FC41688
:10050000D506E606F70610F180832F5F3F4F085FA0
:100510001F4F2832310589F640911C05209118059E
:1005200080911905280F3327331F80911A05280F52
:10053000311D80911B05820F932F911D992748171C
:10054000190681F681E08093290526CF8160DCCFF2
:1005500008950C94660160E00C94C40061E00C9472
:10056000C40080E00895AF92BF92CF92DF92EF92E5
:10057000FF920F931F93CF93DF936C017B018B014D
:10058000040F151FEB015E01AE18BF08C017D1079D
:1005900059F06991D601ED91FC910190F081E02D27
:1005A000C6010995892B79F7C501DF91CF911F917C
:1005B0000F91FF90EF90DF90CF90BF90AF90089594
:1005C000FC01538D448D252F30E0842F90E0821B59
:1005D000930B541710F0CF96089501970895FC01DE
:1005E000918D828D981761F0A28DAE0FBF2FB11D36
:1005F0005D968C91928D9F5F9F73928F90E008958E
:100600008FEF9FEF0895FC01918D828D981731F047
:10061000828DE80FF11D858D90E008958FEF9FEF9B
:100620000895FC01918D228D892F90E0805C9F4F71
:10063000821B91098F73992708958BE794E00E949C
:10064000110321E0892B09F420E0822F089580E036
:1006500090E0892B29F00E941D0381110C94000069
:1006600008958BE794E00C941103FC01A48DA80F6E
:10067000B92FB11DA35ABF4F2C91848D90E00196E4
:100680008F739927848FA689B7892C93A089B18904
:100690008C91837080648C93938D848D981306C0A5
:1006A0000288F389E02D80818F7D80830895EF9209
:1006B000FF920F931F93CF93DF93EC0181E0888F1C
:1006C0009B8D8C8D98131AC0E889F989808185FFEC
:1006D00015C09FB7F894EE89FF896083E889F9898E
:1006E00080818370806480839FBF81E090E0DF9190
:1006F000CF911F910F91FF90EF900895F62E0B8DE3
:1007000010E00F5F1F4F0F731127E02E8C8D8E119D
:100710000CC00FB607FCFACFE889F989808185FF04
:10072000F5CFCE010E943503F1CFEB8DEC0FFD2FFD
:10073000F11DE35AFF4FF0829FB7F8940B8FEA89BF
:10074000FB8980818062CFCFCF93DF93EC01888DCE
:100750008823B9F0AA89BB89E889F9898C9185FD3C
:1007600003C0808186FD0DC00FB607FCF7CF8C91CA
:1007700085FFF2CF808185FFEDCFCE010E9435034A
:10078000E9CFDF91CF91089580538A3048F4E82F64
:10079000F0E0E956FE4F8081082E000C990B089579
:1007A0008FEF9FEF0895682F8BE794E00C94570329
:1007B000EF92FF920F931F93CF93DF937B018C01F6
:1007C000D0E0C0E0CE15DF0508F03DC02FB7F894AB
:1007D0008091770490917804A0917904B0917A0483
:1007E0002FBF8093830490938404A0938504B093D7
:1007F00086048BE794E00E94EF0297FF2CC02FB78E
:10080000F8948091770490917804A0917904B09144
:100810007A042FBF40918304509184046091850431
:1008200070918604841B950BA60BB70B40917F0437
:10083000509180046091810470918204841795071F
:10084000A607B707B0F2CE01DF91CF911F910F91AC
:10085000FF90EF900895F80181938F012196B2CF18
:10086000CF92DF92EF92FF926C01990FEE08FF0892
:1008700060E079E08DE390E0A70196010E94E30D2E
:1008800021503109410951095695479537952795CA
:10089000E0918B04F0918C0482E08083211580E14B
:1008A0003807A8F0E0918B04F0918C04108260E886
:1008B00074E88EE190E0A70196010E94E30D2150BB
:1008C0003109410951095695479537952795E0918A
:1008D0008704F09188043083E0918904F0918A04C0
:1008E000208310929304E0918F04F091900486E0AD
:1008F0008083E0918D04F0918E04808180618083FB
:10090000E0918D04F0918E04808188608083E09175
:100910008D04F0918E04808180688083E0918D0445
:10092000F0918E0480818F7D808380E29EE4A0E040
:10093000B0E080937F0490938004A0938104B093EF
:100940008204FF90EF90DF90CF9008950895E0919A
:10095000F402F091F5020994E091E802F091E902C5
:1009600009940F931F93CF93DF93EC018436910585
:100970002CF164E670E00E94CF0D83E26A307105CD
:1009800024F463577E4FFB0180810E94AC04CE01AA
:1009900064E670E00E94CF0DEC01CA30D10594F0FE
:1009A000CE016AE070E00E94CF0D8C0163577E4F4C
:1009B000FB0180810E94AC04E80107C080E30E9433
:1009C000AC04EBCF80E30E94AC0483E2CA30D105D3
:1009D00018F4C357DE4F8881DF91CF911F910F919B
:1009E0000C94AC04CF92DF92EF92FF920F931F937F
:1009F000CF93DF938C0197FF04C088279927801B32
:100A0000910B7C01C1E0D0E04AE08C179D07D4F443
:100A10008AE0C82ED12CCA30D105DCF0CE01B60157
:100A20000E94CF0DEB01C7010E94CF0D7C0183E234
:100A30006A30710524F463577E4FFB0180810E9468
:100A4000AC04E9CF9E01429FE001439FD00D1124E9
:100A5000DCCF8DE217FF8BE2DF91CF911F910F91D9
:100A6000FF90EF90DF90CF900C94AC04E091EC02FB
:100A7000F091ED020994E091F202F091F3020994F1
:100A8000EF92FF920F931F93CF93DF93CDB7DEB713
:100A9000EDB6FEB62DB73EB7281B390B0FB6F8944E
:100AA0003EBF0FBE2DBF0DB71EB70F5F1F4FE091AA
:100AB000EA02F091EB02BC01C8010995F801A3E03C
:100AC000B1E09D0123503140281739071CF42191D2
:100AD0002D93F7CF0FB6F894FEBE0FBEEDBEDF919B
:100AE000CF911F910F91FF90EF900895CF93809138
:100AF000E6029091E7022091E4023091E50282172C
:100B000093078CF58D5F9E4FFC01C081CA3531F58E
:100B100060916B0170916C01072E000C880B990B92
:100B20000E943B0580910101909102018F3F98073F
:100B300089F0E091F002F091F10209958091E602CE
:100B40009091E70201969093E7028093E6028C2F42
:100B5000CF910895F0E0E0E00995F0CFCE3471F741
:100B60008EE40E94AC0485ED91E00E94A7040E94EF
:100B70003605009759F46091730170917401072E46
:100B8000000C880B990B0E943B05F1CF853691052F
:100B900014F084E690E00E9440059093E502809373
:100BA000E4021092E7021092E602A1CFDF92EF92E8
:100BB000FF920F931F93CF93DF93CDB7DEB760976C
:100BC0000FB6F894DEBF0FBECDBF81EE91E00E945C
:100BD000A7046091670170916801072E000C880BD3
:100BE000990B0E943B050E9476050FEE11E08B34B5
:100BF00089F0282F082E000C330B3F938F931F93FF
:100C00000F930E941F0E0E9476050F900F900F9079
:100C10000F90EDCF0E943605892B29F081E090E0FE
:100C20000E944005F7CF1092E5021092E40286EF91
:100C300091E00E94A7048BE40E94AC040E94760518
:100C4000833421F080E092E00E94A7040E947605A0
:100C5000809300010E947605833421F080E092E0C9
:100C60000E94A7040E9476050E94C4038C010E9482
:100C700076050E94C403093011050CF04EC04AE00D
:100C8000409F9001419F300D1124820F931F90933C
:100C90000201809301010E947605833421F080E0F7
:100CA00092E00E94A7040E9476050E94C4039093DC
:100CB0008A01809389010E947605833421F080E0C7
:100CC00092E00E94A7040E9476050E94C4039093BC
:100CD0006E0180936D010E947605833421F080E0DF
:100CE00092E00E94A7040E9476050FEF1FEF4AE0F2
:100CF000F42E8334A9F00E94C4030F3F100711F4AF
:100D000010E000E0F09E9001F19E300D1124890169
:100D1000080F191F0E947605ECCF8FEF9FEFB7CF1A
:100D200010938801009387010E9476050FEF1FEF53
:100D30003AE0F32E833491F00E94C4030F3F100772
:100D400011F410E000E0F09E9001F19E300D1124AE
:100D50008901080F191F0E947605ECCF0E947605C5
:100D6000EE24EA94FE2C2AE0D22E833499F00E94DD
:100D7000C4032FEFE216F20611F4F12CE12CDE9CF5
:100D80009001DF9C300D11247901E80EF91E0E94BC
:100D90007605EBCF1093740100937301F0928C01F0
:100DA000E0928B01FF92EF921F930F9380910001CD
:100DB000282F082E000C330B3F938F9382E192E093
:100DC0009F938F931F9280E18F938E010F5F1F4F30
:100DD0001F930F930E94350EC8010E94A70467EE6F
:100DE00073E080E090E00E943B050FB6F894DEBF10
:100DF0000FBECDBF60960FB6F894DEBF0FBECDBF5D
:100E0000DF91CF911F910F91FF90EF90DF900895A8
:100E10001F93CF93DF93D0E0C0E01AE00E947605E5
:100E2000893549F40E94D605D0E0C0E0CE01DF91BB
:100E3000CF911F9108958B32C9F38D3221F4D19552
:100E4000C195D109F3CF0E94C4031C9F90011D9F3F
:100E5000300D1124E901C80FD91FE0CF1F920F9266
:100E60000FB60F9211242F933F938F939F93AF93BD
:100E7000BF938091770490917804A0917904B09108
:100E80007A043091720423E0230F2D3758F5019630
:100E9000A11DB11D20937204809377049093780470
:100EA000A0937904B0937A048091730490917404B0
:100EB000A0917504B09176040196A11DB11D809397
:100EC000730490937404A0937504B0937604BF9157
:100ED000AF919F918F913F912F910F900FBE0F90E7
:100EE0001F90189526E8230F0296A11DB11DD2CFA1
:100EF0001F920F920FB60F9211242F933F934F938F
:100F00005F936F937F938F939F93AF93BF93EF9371
:100F1000FF938BE794E00E943503FF91EF91BF911F
:100F2000AF919F918F917F916F915F914F913F9181
:100F30002F910F900FBE0F901F9018951F920F9238
:100F40000FB60F9211242F938F939F93EF93FF93DC
:100F5000E0918B04F0918C048081E0919104F091F8
:100F6000920482FD1BC09081809194048F5F8F73E7
:100F700020919504821741F0E0919404F0E0E55847
:100F8000FB4F958F80939404FF91EF919F918F91E8
:100F90002F910F900FBE0F901F9018958081F4CF66
:100FA000EBE7F4E01382128288EE93E0A0E0B0E079
:100FB00084839583A683B78387EC91E091838083B4
:100FC00085EC90E09587848784EC90E0978786870E
:100FD00080EC90E0918B808B81EC90E0938B828B06
:100FE00082EC90E0958B848B86EC90E0978B868BDF
:100FF000118E128E138E148EA8E1B5E084E0159642
:101000008C9315978BE016968C931697E2EBF0E095
:10101000E4911796EC931797EEE9F0E0E4911896B7
:10102000EC93189740E85EE360E070E01D964D9306
:101030005D936D937C9350970895CF93DF93CDB7D5
:10104000DEB760970FB6F894DEBF0FBECDBF7894C1
:1010500084B5826084BD84B5816084BD85B58260BD
:1010600085BD85B5816085BD80916E00816080936E
:101070006E001092810080918100826080938100D7
:1010800080918100816080938100809180008160E7
:10109000809380008091B10084608093B100809142
:1010A000B00081608093B00080917A00846080936A
:1010B0007A0080917A00826080937A0080917A0031
:1010C000816080937A0080917A00806880937A00B2
:1010D0001092C10061E08DE00E94100162E08091F9
:1010E0001D050E9410012FB7F8948091770490910C
:1010F0007804A0917904B0917A042FBF805D974065
:10110000A109B1098093210590932205A09323059D
:10111000B093240587E380932A0588EA92E09093B0
:10112000F5028093F40289EA92E09093F3028093AF
:10113000F2028BEA92E09093F1028093F00281EB4D
:1011400092E09093BD038093BC0380E394E090937E
:10115000EF028093EE0281E393E09093ED0280939F
:10116000EC0288ED93E09093EB028093EA0283ED2A
:1011700093E09093E9028093E80287EE93E09093E6
:101180006C0180936B0183E690E090936A018093F9
:10119000690180ED97E090936801809367018BE18E
:1011A00092E00E94A7041092700110926F011092B9
:1011B000720110927101E091EE02F091EF0280E86D
:1011C00095E209958AE292E00E94A7040E94360502
:1011D000181619062CF481E090E00E944005F6CF25
:1011E0008AE40E94AC046091690170916A01072E43
:1011F000000C880B990B0E943B050E9436051816BF
:10120000190624F481E090E00E94400580910301DA
:101210008A3431F789E392E00E94A7040E94D60540
:1012200087E492E00E94A704CE0101966C0180E061
:10123000482E80E0582E83E50E94AC0480916F0117
:10124000909170019C012F5F3F4F283EA3E03A0729
:1012500009F447C03093700120936F010E94B104DC
:1012600011EA612E11E0712E03EB802E01E0902E29
:1012700020916D0130916E01C401835B9140821712
:1012800093070CF057C0ADEBAA2EA1E0BA2E10E0E8
:1012900000E0B6E73B2ED301ED91FC910230110541
:1012A00009F442C018F50115110591F1013011053D
:1012B000C1F1EE24EA94FE2CD4018C910E94AC047E
:1012C000832D0E94AC04C7010E94F204F501318015
:1012D000FFE23F16B1F00F5F1F4FBFEFAB1ABB0A23
:1012E000DACF1092700110926F01B8CF0330110560
:1012F000F1F004301105E9F6E084F184E114F10421
:10130000D9F6BFEF8B1A9B0AE2E06E0E711CB0CFCC
:10131000E080F180E114F10479F6D50111963C905A
:10132000DACFE280F380F6CFE480F580F3CFE68079
:10133000F780F0CF84E50E94AC047724739410E02A
:1013400000E00E9436054C01892B09F096C07720F9
:1013500009F487C080918B0190918C0180179107CF
:1013600009F074C0E091BC03F091BD030995782E9B
:1013700080E50E94AC0480917101909172019C0102
:101380002F5F3F4F283E43E03407A9F130937201AD
:10139000209371010E94B1047DEBA72E71E0B72E5E
:1013A00010E000E0E6E76E2E0230110509F444C0BB
:1013B00038F501151105B1F1E0908C02F0908D0225
:1013C0000130110599F1EE24EA94FE2C81E60E9489
:1013D000AC04862D0E94AC04C7010E94F204D50122
:1013E00011966C90BFE26B16C1F00F5F1F4F8FEF2D
:1013F000A81AB80AD9CF1092720110927101CACFFF
:1014000003301105F1F004301105E9F6E090920285
:10141000F0909302E114F104C9F684E50E94AC0453
:1014200084018FCFE0908A02F0908B02E114F104E6
:1014300069F6F5016180D9CFE0908E02F0908F02BD
:10144000F5CFE0909002F0909102F0CF4801EFEFDD
:101450008E1A9E0A61E070E080E090E00E943B05F9
:10146000DFCF6091730170917401072E000C880B1F
:10147000990B0E943B054801D3CF60908901709081
:101480008A01809087019090880155E7A52E51E050
:10149000B52ED50190E080E08615970574F4ED91A6
:1014A000FD9111821082138212821582148217829A
:1014B0001682118610860196EFCF0E94760582353E
:1014C000D9F0282F082E000C330B3F938F933F93B6
:1014D0008F9386E592E09F938F931F92B0E1BF9325
:1014E000DF92CF920E94350EC6010E94A7040FB66C
:1014F000F894DEBF0FBECDBF46EFE42E42E0F42EDF
:1015000010E000E0081519054CF40E940807D70107
:101510008D939D937D010F5F1F4FF4CF0E94760541
:10152000382EB9E533EB832E31E0932E8B131DC09B
:101530000E94D6050091BE031091BF030E9499013D
:10154000882359F080911E058B3038F08D3008F4D7
:101550007FC08551823008F4B4C060E070E080EC58
:101560009FE792C0E2E0AE0EB11CC401835B9140E4
:10157000861597050CF04CC0D4018D914D01831157
:10158000F1CF0E9476059DEBE92E91E0F92E26E73A
:10159000222E87010D5B1140893551F2281659F032
:1015A000D70111962C90BFEFEB1AFB0AEFE22E1237
:1015B000F0CF382ED7CF0E940807D501ED91FC91CE
:1015C00002301105F9F078F401151105A9F0013088
:1015D0001105A9F0F70121800E9476053812E9CFA4
:1015E0000E947605E0CF0330110579F00430110533
:1015F00089F791878087EECF91838083EBCF9383A8
:101600008283E8CF95838483E5CF97838683E2CF77
:10161000F4E53F1609F48ECF832D032C000C990BB3
:101620009F933F929F933F9280E792E09F938F9387
:101630001F92B0E1BF93DF92CF920E94350EC60198
:101640000E94A7040FB6F894DEBF0FBECDBF72CFC5
:101650006091190570E090E080E00E94FC0B2DEC99
:101660003CEC4CEC5DE30E94370C4B015C0160915B
:10167000180570E090E080E00E94FC0B9B01AC013B
:10168000C501B4010E942D0D20E030E040E251E49C
:101690000E94370C0E94990D7093230460932204DA
:1016A0000E949901882341F080911E058C3009F435
:1016B00081C0C8F48B3081F160E070E080EC9FE77E
:1016C00053C0609118057091190576276727762712
:1016D00090E080E00E94FA0B2DEC3CEC4CEC5DE3DA
:1016E0000E94370CD1CF8551823030F7F0901A0527
:1016F0006F2D70E0762F662766277F7780911B0518
:10170000682B90E080E00E94FA0B2DEC3CEC4CEC56
:101710005DE30E94370C6AC060911A0570E090E0AA
:1017200080E00E94FA0B4B015C01F0901B05F7FE74
:101730000AC0AC019B0160E070E080E89FEB0E9472
:101740002C0D4B015C016F2D6F7070E090E080E01C
:101750000E94FC0B2DEC3CEC4CEC5DE30E94370C42
:10176000A50194010E942D0D20E030E040E251E4FB
:101770000E94370C0E94990D7093250460932404F5
:1017800061E00130110509F060E08DE00E94C400C5
:1017900063E670E080E090E00E946601411451042D
:1017A00009F449CD0E941D03882309F444CD0E9409
:1017B00000003DCDF0901A056F2D70E090E080E0C4
:1017C0000E94FA0B4B015C0160911B056F7070E089
:1017D00090E080E00E94FC0B2DEC3CEC4CEC5DE3D7
:1017E0000E94370CA50194010E942D0DF7FEBCCF7D
:1017F0009058BACFE89409C097FB3EF49095809535
:10180000709561957F4F8F4F9F4F9923A9F0F92FC6
:1018100096E9BB279395F695879577956795B79544
:10182000F111F8CFFAF4BB0F11F460FF1BC06F5F2A
:101830007F4F8F4F9F4F16C0882311F096E911C03C
:10184000772321F09EE8872F762F05C0662371F05D
:1018500096E8862F70E060E02AF09A95660F771F71
:10186000881FDAF7880F9695879597F908950E9453
:101870004A0C0C94BB0C0E94AD0C38F00E94B40CC6
:1018800020F0952311F00C94A40C0C94AA0C1124B4
:101890000C94EF0C0E94CC0C70F3959FC1F3950F44
:1018A00050E0551F629FF001729FBB27F00DB11DE4
:1018B000639FAA27F00DB11DAA1F649F6627B00D74
:1018C000A11D661F829F2227B00DA11D621F739F5D
:1018D000B00DA11D621F839FA00D611D221F749F6B
:1018E0003327A00D611D231F849F600D211D822FB2
:1018F000762F6A2F11249F5750409AF0F1F08823D9
:101900004AF0EE0FFF1FBB1F661F771F881F915005
:101910005040A9F79E3F510580F00C94A40C0C9404
:10192000EF0C5F3FE4F3983ED4F386957795679587
:10193000B795F795E7959F5FC1F7FE2B880F911D2F
:101940009695879597F9089597F99F6780E870E0D5
:1019500060E008959FEF80EC089500240A94161625
:10196000170618060906089500240A94121613068D
:10197000140605060895092E0394000C11F488231B
:1019800052F0BB0F40F4BF2B11F460FF04C06F5F37
:101990007F4F8F4F9F4F089557FD9058440F551F0D
:1019A00059F05F3F71F04795880F97FB991F61F0E1
:1019B0009F3F79F087950895121613061406551F58
:1019C000F2CF4695F1DF08C0161617061806991FC4
:1019D000F1CF86957105610508940895E894BB27B9
:1019E00066277727CB0197F908952F923F924F9260
:1019F0005F926F927F928F929F92AF92BF92CF929F
:101A0000DF92EF92FF920F931F93CF93DF93CDB7A7
:101A1000DEB7CA1BDB0B0FB6F894DEBF0FBECDBF1F
:101A200009942A88398848885F846E847D848C84F0
:101A30009B84AA84B984C884DF80EE80FD800C81F9
:101A40001B81AA81B981CE0FD11D0FB6F894DEBFDC
:101A50000FBECDBFED0108955058BB27AA270E94A5
:101A6000440D0C94BB0C0E94AD0C38F00E94B40CD9
:101A700020F039F49F3F19F426F40C94AA0C0EF4CC
:101A8000E095E7FB0C94A40CE92F0E94CC0C58F3D2
:101A9000BA17620773078407950720F079F4A6F553
:101AA0000C94EE0C0EF4E0950B2EBA2FA02D0B012A
:101AB000B90190010C01CA01A0011124FF27591B93
:101AC00099F0593F50F4503E68F11A16F040A22F99
:101AD000232F342F4427585FF3CF4695379527950A
:101AE000A795F0405395C9F77EF41F16BA0B620B09
:101AF000730B840BBAF09150A1F0FF0FBB1F661F50
:101B0000771F881FC2F70EC0BA0F621F731F841F92
:101B100048F4879577956795B795F7959E3F08F0B8
:101B2000B0CF9395880F08F09927EE0F979587957A
:101B300008950E94A00D6894B1110C94EF0C0895C3
:101B40000E94D40C88F09F5798F0B92F9927B7516D
:101B5000B0F0E1F0660F771F881F991F1AF0BA9551
:101B6000C9F714C0B13091F00E94EE0CB1E00895B5
:101B70000C94EE0C672F782F8827B85F39F0B93FA7
:101B8000CCF3869577956795B395D9F73EF4909504
:101B90008095709561957F4F8F4F9F4F089597FB6C
:101BA000072E16F4009407D077FD09D00E94050E89
:101BB00007FC05D03EF4909581959F4F0895709550
:101BC00061957F4F0895A1E21A2EAA1BBB1BFD0150
:101BD0000DC0AA1FBB1FEE1FFF1FA217B307E4070C
:101BE000F50720F0A21BB30BE40BF50B661F771F64
:101BF000881F991F1A9469F7609570958095909544
:101C00009B01AC01BD01CF010895AA1BBB1B51E193
:101C100007C0AA1FBB1FA617B70710F0A61BB70B5C
:101C2000881F991F5A95A9F780959095BC01CD0101
:101C30000895EE0FFF1F0590F491E02D0994B0E098
:101C4000A0E0E5E2FEE00C94050DAE014B5F5F4FB6
:101C5000FA0161917191AF0180912D0590912E054E
:101C60000E94650EE2E00C94210DAEE0B0E0EBE3E3
:101C7000FEE00C94030D0D891E898F89988D26E056
:101C80002C831A83098397FF02C080E090E80197B4
:101C90009E838D83AE01455E5F4F698D7A8DCE0147
:101CA00001960E94650E4D815E8157FD0AC02F810D
:101CB0003885421753070CF49A01020F131FF801DD
:101CC00010822E96E4E00C941F0DABE0B0E0EBE642
:101CD000FEE00C94F50C7C013B018A01FC011782AB
:101CE0001682838181FFC8C1CE0101965C01F70194
:101CF0009381F30193FD859193FF81913F018823A7
:101D000009F453C1853239F493FD859193FF819194
:101D10003F01853229F4B70190E00E945510E7CFCA
:101D2000912C212C312CFFE1F31538F08B3211F17D
:101D300090F4803209F1833229F137FC3CC020ED68
:101D4000280F2A3050F536FE20C08AE0989E200DDC
:101D50001124922E06C08D3291F0803371F7689471
:101D600030F8F30193FD859193FF81913F0181113B
:101D7000DACF21C0689431F8689432F8F2CF6894D1
:101D800033F8EFCF689434F8ECCFEAE02E9E200DC4
:101D90001124222E689435F8E4CF8E3229F436FCD3
:101DA00004C1689436F8DDCF8C3619F4689437F89E
:101DB000D8CF8836B1F2982F9F7D95549330E0F0BC
:101DC0008336A1F18337C1F1833509F063C028015F
:101DD000F2E04F0E511CF801C080D180692D70E0F7
:101DE00036FC02C06FEF7FEFC6010E943F104C012E
:101DF000689437F882010AC00C5F1F4FFFE3F98334
:101E000088248394912C6501E89437F833FE2DC023
:101E1000522C8114910471F5552009F468CFB70153
:101E200080E290E00E9455105A94F6CFF80180812C
:101E300089830E5F1F4FE4CF2801F2E04F0E511C43
:101E4000F801C080D180692D70E036FC02C06FEFD0
:101E50007FEFC6010E944A104C018201D5CFB70125
:101E600080E290E00E9455102A942814190409F089
:101E7000B0F7CECFF60137FC859137FE81916F0127
:101E8000B70190E00E94551051105A94F1E08F1A5A
:101E90009108BFCF843619F0893609F077C0F80170
:101EA00037FE6BC060817181828193810C5F1F4F0F
:101EB000F32DFF763F2E97FF09C090958095709582
:101EC00061957F4F8F4F9F4F689437F82AE030E03D
:101ED000A5010E948510C82ECA188C2C432C36FEF2
:101EE0000CC0E89440F8C91440F434FE05C032FC3C
:101EF00003C0F32DFE7E4F2E892C44FE95C0FE01BB
:101F0000EC0DF11D8081803309F087C0242D297EDE
:101F1000422E842D8870582E43FC95C040FE8FC001
:101F20009C2C821418F42C0C922C981844FE91C00E
:101F3000B70180E390E00E94551042FE09C088E797
:101F400090E041FE02C088E590E0B7010E94551084
:101F5000C91408F48AC0CA94D12C9FEFC91AD90AAF
:101F6000CA0CDB1CF60182916F01B70190E00E9460
:101F70005510AC14BD04B1F74FCF60817181072EAD
:101F8000000C880B990B0E5F1F4F92CFD32CE89457
:101F9000D4F82AE030E0853739F1232D297FD22E7D
:101FA0008F3601F148F48835A9F0F70186819781D1
:101FB0002B96E2E10C94110D803749F08837A9F790
:101FC000D4FE02C06894D2F820E130E00DC06894DD
:101FD000D4F8F6CF34FE03C0822F8660D82E20E1DD
:101FE00032E002C028E030E0F801D7FE0FC0608187
:101FF0007181828193810C5F1F4FA5010E94851022
:10200000C82ECA183D2CE89437F867CF60817181DB
:1020100090E080E00E5F1F4FF0CF42FC02C083943F
:1020200078CF8394839475CF842D867809F471CF0B
:10203000F6CFB70180E290E00E945510839482149D
:10204000C0F3512C73CF522C5818821408F46ECF61
:10205000F8CF842D867809F47BCF8BE241FE80E2B5
:1020600047FC8DE2B70190E071CFB70180E390E0CB
:102070000E9455109A946CCF8FEF9FEF99CFFC017F
:102080000590615070400110D8F7809590958E0FA3
:102090009F1F0895FC016150704001900110D8F716
:1020A000809590958E0F9F1F08950F931F93CF9348
:1020B000DF93182F092FEB018B8181FD09C01FEFE2
:1020C0000FEF812F902FDF91CF911F910F910895E6
:1020D00082FF14C02E813F818C819D812817390792
:1020E0003CF4E881F981CF010196998388831083BC
:1020F0008E819F8101969F838E83E3CFE885F9854A
:10210000812F0995892BA1F3DACFFA01AA2728306C
:1021100051F1203181F1E8946F936E7F6E5F7F4FB4
:102120008F4F9F4FAF4FB1E03ED0B4E03CD0670F30
:10213000781F891F9A1FA11D680F791F8A1F911D83
:10214000A11D6A0F711D811D911DA11D20D009F4D3
:1021500068943F912AE0269F11243019305D319315
:10216000DEF6CF010895462F4770405D4193B3E0FE
:102170000FD0C9F7F6CF462F4F70405D4A3318F0A5
:10218000495D31FD4052419302D0A9F7EACFB4E056
:10219000A6959795879577956795BA95C9F700970E
:1021A0006105710508959B01AC010A2E06945795AF
:1021B000479537952795BA95C9F7620F731F841F06
:0A21C000951FA01D0895F894FFCFAD
:1021CA0041FFFF2D2D2D2D232D2D2D2D232D2D2D91
:1021DA002D232D2D2D2D232D2D2D2D232D2D2D2D43
:1021EA00232D2D2D2D232D2D2D2D233D2D2D2D3D13
:1021FA002D2D2D2D3D2D2D2D2D232D2D2D2D232D09
:10220A002D2D2D232D2D2D2D232D2D2D2D232D2D12
:10221A002D2D232D2D2D2D232D2D2D2D233D2D2DF2
:10222A002D3D2D2D2D2D3DFFFFFFFFFFFFFFFFFF52
:10223A00FFFFFF6300BE03C803D203DC03E603F01B
:10224A0003FA0304040E04FFFFFFFFFFFF303132DD
:10225A0033343536373839000102030405060708D6
:10226A0009180422042C04360440044A0454045E67
:10227A000468046162636465666768692F767778C3
:10228A00797A2F000000005703B302E002A4031179
:10229A0003EF020303617661696C61626C65282948
:1022AA0000232323205265736574202323230052BD
:1022BA00442025630A002320476F74204B20230003
:1022CA00232050726F6772616D206572726F72207F
:1022DA0023002563202564202564002320636F7270
:1022EA00655F73657475702D2D0023232320496E55
:1022FA006974204A202323230023232320476F7451
:10230A00204A202323230023202D2D636F72655F2B
:10231A0073657475700045787065637465642052DE
:10232A002062757420676F742025632025630A0074
:10233A0045787065637465642054206275742067FB
:0A234A006F742025632025630A004C
:00000001FF
